{
  "_format": "hh-sol-artifact-1",
  "contractName": "CoffeeContract",
  "sourceName": "contracts/CoffeeContract.sol",
  "abi": [
    {
      "inputs": [],
      "stateMutability": "payable",
      "type": "constructor"
    },
    {
      "inputs": [],
      "name": "getAllCoffee",
      "outputs": [
        {
          "components": [
            {
              "internalType": "address",
              "name": "giver",
              "type": "address"
            },
            {
              "internalType": "string",
              "name": "message",
              "type": "string"
            },
            {
              "internalType": "string",
              "name": "name",
              "type": "string"
            },
            {
              "internalType": "uint256",
              "name": "timestamp",
              "type": "uint256"
            }
          ],
          "internalType": "struct CoffeeContract.Coffee[]",
          "name": "",
          "type": "tuple[]"
        }
      ],
      "stateMutability": "view",
      "type": "function"
    },
    {
      "inputs": [],
      "name": "getBalance",
      "outputs": [
        {
          "internalType": "uint256",
          "name": "",
          "type": "uint256"
        }
      ],
      "stateMutability": "view",
      "type": "function"
    },
    {
      "inputs": [],
      "name": "owner",
      "outputs": [
        {
          "internalType": "address payable",
          "name": "",
          "type": "address"
        }
      ],
      "stateMutability": "view",
      "type": "function"
    },
    {
      "inputs": [
        {
          "internalType": "uint256",
          "name": "_amount",
          "type": "uint256"
        },
        {
          "internalType": "string",
          "name": "_message",
          "type": "string"
        },
        {
          "internalType": "string",
          "name": "_name",
          "type": "string"
        }
      ],
      "name": "transfer",
      "outputs": [],
      "stateMutability": "payable",
      "type": "function"
    }
  ],
  "bytecode": "0x6080604052336000806101000a81548173ffffffffffffffffffffffffffffffffffffffff021916908373ffffffffffffffffffffffffffffffffffffffff160217905550610d54806100536000396000f3fe60806040526004361061003f5760003560e01c806312065fe0146100445780638da5cb5b1461006f578063993ae8931461009a578063d386beca146100b6575b600080fd5b34801561005057600080fd5b506100596100e1565b6040516100669190610a1f565b60405180910390f35b34801561007b57600080fd5b506100846100e9565b6040516100919190610982565b60405180910390f35b6100b460048036038101906100af91906106fa565b61010d565b005b3480156100c257600080fd5b506100cb610327565b6040516100d8919061099d565b60405180910390f35b600047905090565b60008054906101000a900473ffffffffffffffffffffffffffffffffffffffff1681565b60006611c37937e0800090508084111561015c576040517f08c379a0000000000000000000000000000000000000000000000000000000008152600401610153906109df565b60405180910390fd5b60008060009054906101000a900473ffffffffffffffffffffffffffffffffffffffff1673ffffffffffffffffffffffffffffffffffffffff16856040516101a39061096d565b60006040518083038185875af1925050503d80600081146101e0576040519150601f19603f3d011682016040523d82523d6000602084013e6101e5565b606091505b5050905080610229576040517f08c379a0000000000000000000000000000000000000000000000000000000008152600401610220906109bf565b60405180910390fd5b600160405180608001604052803373ffffffffffffffffffffffffffffffffffffffff16815260200186815260200185815260200142815250908060018154018082558091505060019003906000526020600020906004020160009091909190915060008201518160000160006101000a81548173ffffffffffffffffffffffffffffffffffffffff021916908373ffffffffffffffffffffffffffffffffffffffff16021790555060208201518160010190805190602001906102ee9291906105da565b50604082015181600201908051906020019061030b9291906105da565b5060608201518160030155505061032061050a565b5050505050565b60606001805480602002602001604051908101604052809291908181526020016000905b8282101561050157838290600052602060002090600402016040518060800160405290816000820160009054906101000a900473ffffffffffffffffffffffffffffffffffffffff1673ffffffffffffffffffffffffffffffffffffffff1673ffffffffffffffffffffffffffffffffffffffff1681526020016001820180546103d490610b91565b80601f016020809104026020016040519081016040528092919081815260200182805461040090610b91565b801561044d5780601f106104225761010080835404028352916020019161044d565b820191906000526020600020905b81548152906001019060200180831161043057829003601f168201915b5050505050815260200160028201805461046690610b91565b80601f016020809104026020016040519081016040528092919081815260200182805461049290610b91565b80156104df5780601f106104b4576101008083540402835291602001916104df565b820191906000526020600020905b8154815290600101906020018083116104c257829003601f168201915b505050505081526020016003820154815250508152602001906001019061034b565b50505050905090565b60008060009054906101000a900473ffffffffffffffffffffffffffffffffffffffff1673ffffffffffffffffffffffffffffffffffffffff16476040516105519061096d565b60006040518083038185875af1925050503d806000811461058e576040519150601f19603f3d011682016040523d82523d6000602084013e610593565b606091505b50509050806105d7576040517f08c379a00000000000000000000000000000000000000000000000000000000081526004016105ce906109ff565b60405180910390fd5b50565b8280546105e690610b91565b90600052602060002090601f016020900481019282610608576000855561064f565b82601f1061062157805160ff191683800117855561064f565b8280016001018555821561064f579182015b8281111561064e578251825591602001919060010190610633565b5b50905061065c9190610660565b5090565b5b80821115610679576000816000905550600101610661565b5090565b600061069061068b84610a5f565b610a3a565b9050828152602081018484840111156106a857600080fd5b6106b3848285610b4f565b509392505050565b600082601f8301126106cc57600080fd5b81356106dc84826020860161067d565b91505092915050565b6000813590506106f481610d07565b92915050565b60008060006060848603121561070f57600080fd5b600061071d868287016106e5565b935050602084013567ffffffffffffffff81111561073a57600080fd5b610746868287016106bb565b925050604084013567ffffffffffffffff81111561076357600080fd5b61076f868287016106bb565b9150509250925092565b600061078583836108e5565b905092915050565b61079681610b13565b82525050565b6107a581610b01565b82525050565b60006107b682610aa0565b6107c08185610ac3565b9350836020820285016107d285610a90565b8060005b8581101561080e57848403895281516107ef8582610779565b94506107fa83610ab6565b925060208a019950506001810190506107d6565b50829750879550505050505092915050565b600061082b82610aab565b6108358185610adf565b9350610845818560208601610b5e565b61084e81610c52565b840191505092915050565b6000610866601483610af0565b915061087182610c63565b602082019050919050565b6000610889602b83610af0565b915061089482610c8c565b604082019050919050565b60006108ac601883610af0565b91506108b782610cdb565b602082019050919050565b60006108cf600083610ad4565b91506108da82610d04565b600082019050919050565b60006080830160008301516108fd600086018261079c565b50602083015184820360208601526109158282610820565b9150506040830151848203604086015261092f8282610820565b9150506060830151610944606086018261094f565b508091505092915050565b61095881610b45565b82525050565b61096781610b45565b82525050565b6000610978826108c2565b9150819050919050565b6000602082019050610997600083018461078d565b92915050565b600060208201905081810360008301526109b781846107ab565b905092915050565b600060208201905081810360008301526109d881610859565b9050919050565b600060208201905081810360008301526109f88161087c565b9050919050565b60006020820190508181036000830152610a188161089f565b9050919050565b6000602082019050610a34600083018461095e565b92915050565b6000610a44610a55565b9050610a508282610bc3565b919050565b6000604051905090565b600067ffffffffffffffff821115610a7a57610a79610c23565b5b610a8382610c52565b9050602081019050919050565b6000819050602082019050919050565b600081519050919050565b600081519050919050565b6000602082019050919050565b600082825260208201905092915050565b600081905092915050565b600082825260208201905092915050565b600082825260208201905092915050565b6000610b0c82610b25565b9050919050565b6000610b1e82610b25565b9050919050565b600073ffffffffffffffffffffffffffffffffffffffff82169050919050565b6000819050919050565b82818337600083830152505050565b60005b83811015610b7c578082015181840152602081019050610b61565b83811115610b8b576000848401525b50505050565b60006002820490506001821680610ba957607f821691505b60208210811415610bbd57610bbc610bf4565b5b50919050565b610bcc82610c52565b810181811067ffffffffffffffff82111715610beb57610bea610c23565b5b80604052505050565b7f4e487b7100000000000000000000000000000000000000000000000000000000600052602260045260246000fd5b7f4e487b7100000000000000000000000000000000000000000000000000000000600052604160045260246000fd5b6000601f19601f8301169050919050565b7f4661696c656420746f2073656e64204574686572000000000000000000000000600082015250565b7f446f6e27742073656e64206d6f7265207468616e20302e30303520457468657260008201527f20617420612074696d6521000000000000000000000000000000000000000000602082015250565b7f4661696c656420746f2077697468647261772045746865720000000000000000600082015250565b50565b610d1081610b45565b8114610d1b57600080fd5b5056fea2646970667358221220cf18ecde10fb43257daf0783a003f23841970dbf9b31ef6ea4982ce61a1c978664736f6c63430008040033",
  "linkReferences": {},
  "deployedLinkReferences": {}
}