{
  "_format": "hh-sol-artifact-1",
  "contractName": "CoffeeContract",
  "sourceName": "contracts/CoffeeContract.sol",
  "abi": [
    {
      "inputs": [],
      "stateMutability": "payable",
      "type": "constructor"
    },
    {
      "inputs": [],
      "name": "getAllCoffee",
      "outputs": [
        {
          "components": [
            {
              "internalType": "address",
              "name": "giver",
              "type": "address"
            },
            {
              "internalType": "string",
              "name": "message",
              "type": "string"
            },
            {
              "internalType": "string",
              "name": "name",
              "type": "string"
            },
            {
              "internalType": "uint256",
              "name": "timestamp",
              "type": "uint256"
            }
          ],
          "internalType": "struct CoffeeContract.Coffee[]",
          "name": "",
          "type": "tuple[]"
        }
      ],
      "stateMutability": "view",
      "type": "function"
    },
    {
      "inputs": [],
      "name": "getBalance",
      "outputs": [
        {
          "internalType": "uint256",
          "name": "",
          "type": "uint256"
        }
      ],
      "stateMutability": "view",
      "type": "function"
    },
    {
      "inputs": [],
      "name": "owner",
      "outputs": [
        {
          "internalType": "address payable",
          "name": "",
          "type": "address"
        }
      ],
      "stateMutability": "view",
      "type": "function"
    },
    {
      "inputs": [
        {
          "internalType": "uint256",
          "name": "_amount",
          "type": "uint256"
        },
        {
          "internalType": "string",
          "name": "_message",
          "type": "string"
        },
        {
          "internalType": "string",
          "name": "_name",
          "type": "string"
        }
      ],
      "name": "transfer",
      "outputs": [],
      "stateMutability": "nonpayable",
      "type": "function"
    },
    {
      "inputs": [],
      "name": "withdrawAll",
      "outputs": [],
      "stateMutability": "nonpayable",
      "type": "function"
    }
  ],
  "bytecode": "0x6080604052336000806101000a81548173ffffffffffffffffffffffffffffffffffffffff021916908373ffffffffffffffffffffffffffffffffffffffff160217905550610e49806100536000396000f3fe608060405234801561001057600080fd5b50600436106100575760003560e01c806312065fe01461005c578063853828b61461007a5780638da5cb5b14610084578063993ae893146100a2578063d386beca146100be575b600080fd5b6100646100dc565b6040516100719190610aeb565b60405180910390f35b6100826100e4565b005b61008c610242565b6040516100999190610a2e565b60405180910390f35b6100bc60048036038101906100b79190610783565b610266565b005b6100c6610480565b6040516100d39190610a49565b60405180910390f35b600047905090565b60008054906101000a900473ffffffffffffffffffffffffffffffffffffffff1673ffffffffffffffffffffffffffffffffffffffff163373ffffffffffffffffffffffffffffffffffffffff1614610172576040517f08c379a000000000000000000000000000000000000000000000000000000000815260040161016990610a8b565b60405180910390fd5b60008060009054906101000a900473ffffffffffffffffffffffffffffffffffffffff1673ffffffffffffffffffffffffffffffffffffffff16476040516101b990610a19565b60006040518083038185875af1925050503d80600081146101f6576040519150601f19603f3d011682016040523d82523d6000602084013e6101fb565b606091505b505090508061023f576040517f08c379a000000000000000000000000000000000000000000000000000000000815260040161023690610acb565b60405180910390fd5b50565b60008054906101000a900473ffffffffffffffffffffffffffffffffffffffff1681565b60006611c37937e080009050808411156102b5576040517f08c379a00000000000000000000000000000000000000000000000000000000081526004016102ac90610aab565b60405180910390fd5b60008060009054906101000a900473ffffffffffffffffffffffffffffffffffffffff1673ffffffffffffffffffffffffffffffffffffffff16856040516102fc90610a19565b60006040518083038185875af1925050503d8060008114610339576040519150601f19603f3d011682016040523d82523d6000602084013e61033e565b606091505b5050905080610382576040517f08c379a000000000000000000000000000000000000000000000000000000000815260040161037990610a6b565b60405180910390fd5b600160405180608001604052803373ffffffffffffffffffffffffffffffffffffffff16815260200186815260200185815260200142815250908060018154018082558091505060019003906000526020600020906004020160009091909190915060008201518160000160006101000a81548173ffffffffffffffffffffffffffffffffffffffff021916908373ffffffffffffffffffffffffffffffffffffffff1602179055506020820151816001019080519060200190610447929190610663565b506040820151816002019080519060200190610464929190610663565b506060820151816003015550506104796100e4565b5050505050565b60606001805480602002602001604051908101604052809291908181526020016000905b8282101561065a57838290600052602060002090600402016040518060800160405290816000820160009054906101000a900473ffffffffffffffffffffffffffffffffffffffff1673ffffffffffffffffffffffffffffffffffffffff1673ffffffffffffffffffffffffffffffffffffffff16815260200160018201805461052d90610c5d565b80601f016020809104026020016040519081016040528092919081815260200182805461055990610c5d565b80156105a65780601f1061057b576101008083540402835291602001916105a6565b820191906000526020600020905b81548152906001019060200180831161058957829003601f168201915b505050505081526020016002820180546105bf90610c5d565b80601f01602080910402602001604051908101604052809291908181526020018280546105eb90610c5d565b80156106385780601f1061060d57610100808354040283529160200191610638565b820191906000526020600020905b81548152906001019060200180831161061b57829003601f168201915b50505050508152602001600382015481525050815260200190600101906104a4565b50505050905090565b82805461066f90610c5d565b90600052602060002090601f01602090048101928261069157600085556106d8565b82601f106106aa57805160ff19168380011785556106d8565b828001600101855582156106d8579182015b828111156106d75782518255916020019190600101906106bc565b5b5090506106e591906106e9565b5090565b5b808211156107025760008160009055506001016106ea565b5090565b600061071961071484610b2b565b610b06565b90508281526020810184848401111561073157600080fd5b61073c848285610c1b565b509392505050565b600082601f83011261075557600080fd5b8135610765848260208601610706565b91505092915050565b60008135905061077d81610dfc565b92915050565b60008060006060848603121561079857600080fd5b60006107a68682870161076e565b935050602084013567ffffffffffffffff8111156107c357600080fd5b6107cf86828701610744565b925050604084013567ffffffffffffffff8111156107ec57600080fd5b6107f886828701610744565b9150509250925092565b600061080e8383610991565b905092915050565b61081f81610bdf565b82525050565b61082e81610bcd565b82525050565b600061083f82610b6c565b6108498185610b8f565b93508360208202850161085b85610b5c565b8060005b8581101561089757848403895281516108788582610802565b945061088383610b82565b925060208a0199505060018101905061085f565b50829750879550505050505092915050565b60006108b482610b77565b6108be8185610bab565b93506108ce818560208601610c2a565b6108d781610d1e565b840191505092915050565b60006108ef601483610bbc565b91506108fa82610d2f565b602082019050919050565b6000610912601783610bbc565b915061091d82610d58565b602082019050919050565b6000610935602b83610bbc565b915061094082610d81565b604082019050919050565b6000610958601883610bbc565b915061096382610dd0565b602082019050919050565b600061097b600083610ba0565b915061098682610df9565b600082019050919050565b60006080830160008301516109a96000860182610825565b50602083015184820360208601526109c182826108a9565b915050604083015184820360408601526109db82826108a9565b91505060608301516109f060608601826109fb565b508091505092915050565b610a0481610c11565b82525050565b610a1381610c11565b82525050565b6000610a248261096e565b9150819050919050565b6000602082019050610a436000830184610816565b92915050565b60006020820190508181036000830152610a638184610834565b905092915050565b60006020820190508181036000830152610a84816108e2565b9050919050565b60006020820190508181036000830152610aa481610905565b9050919050565b60006020820190508181036000830152610ac481610928565b9050919050565b60006020820190508181036000830152610ae48161094b565b9050919050565b6000602082019050610b006000830184610a0a565b92915050565b6000610b10610b21565b9050610b1c8282610c8f565b919050565b6000604051905090565b600067ffffffffffffffff821115610b4657610b45610cef565b5b610b4f82610d1e565b9050602081019050919050565b6000819050602082019050919050565b600081519050919050565b600081519050919050565b6000602082019050919050565b600082825260208201905092915050565b600081905092915050565b600082825260208201905092915050565b600082825260208201905092915050565b6000610bd882610bf1565b9050919050565b6000610bea82610bf1565b9050919050565b600073ffffffffffffffffffffffffffffffffffffffff82169050919050565b6000819050919050565b82818337600083830152505050565b60005b83811015610c48578082015181840152602081019050610c2d565b83811115610c57576000848401525b50505050565b60006002820490506001821680610c7557607f821691505b60208210811415610c8957610c88610cc0565b5b50919050565b610c9882610d1e565b810181811067ffffffffffffffff82111715610cb757610cb6610cef565b5b80604052505050565b7f4e487b7100000000000000000000000000000000000000000000000000000000600052602260045260246000fd5b7f4e487b7100000000000000000000000000000000000000000000000000000000600052604160045260246000fd5b6000601f19601f8301169050919050565b7f4661696c656420746f2073656e64204574686572000000000000000000000000600082015250565b7f4f6e6c79206f776e65722063616e207769746864726177000000000000000000600082015250565b7f446f6e27742073656e64206d6f7265207468616e20302e30303520457468657260008201527f20617420612074696d6521000000000000000000000000000000000000000000602082015250565b7f4661696c656420746f2077697468647261772045746865720000000000000000600082015250565b50565b610e0581610c11565b8114610e1057600080fd5b5056fea26469706673582212201bedee10e75d671c263cc5bb41e1c6255343cf79a2e5b70112c58aa8352b435b64736f6c63430008040033",
  "linkReferences": {},
  "deployedLinkReferences": {}
}