{
  "_format": "hh-sol-artifact-1",
  "contractName": "CoffeePortal",
  "sourceName": "contracts/CoffeePortal.sol",
  "abi": [
    {
      "inputs": [],
      "stateMutability": "payable",
      "type": "constructor"
    },
    {
      "anonymous": false,
      "inputs": [
        {
          "indexed": true,
          "internalType": "address",
          "name": "from",
          "type": "address"
        },
        {
          "indexed": false,
          "internalType": "uint256",
          "name": "timestamp",
          "type": "uint256"
        },
        {
          "indexed": false,
          "internalType": "string",
          "name": "message",
          "type": "string"
        },
        {
          "indexed": false,
          "internalType": "string",
          "name": "name",
          "type": "string"
        }
      ],
      "name": "NewCoffee",
      "type": "event"
    },
    {
      "inputs": [
        {
          "internalType": "string",
          "name": "_message",
          "type": "string"
        },
        {
          "internalType": "string",
          "name": "_name",
          "type": "string"
        },
        {
          "internalType": "uint256",
          "name": "_payAmount",
          "type": "uint256"
        }
      ],
      "name": "buyCoffee",
      "outputs": [],
      "stateMutability": "payable",
      "type": "function"
    },
    {
      "inputs": [],
      "name": "getAllCoffee",
      "outputs": [
        {
          "components": [
            {
              "internalType": "address",
              "name": "giver",
              "type": "address"
            },
            {
              "internalType": "string",
              "name": "message",
              "type": "string"
            },
            {
              "internalType": "string",
              "name": "name",
              "type": "string"
            },
            {
              "internalType": "uint256",
              "name": "timestamp",
              "type": "uint256"
            }
          ],
          "internalType": "struct CoffeePortal.Coffee[]",
          "name": "",
          "type": "tuple[]"
        }
      ],
      "stateMutability": "view",
      "type": "function"
    },
    {
      "inputs": [],
      "name": "getTotalCoffee",
      "outputs": [
        {
          "internalType": "uint256",
          "name": "",
          "type": "uint256"
        }
      ],
      "stateMutability": "view",
      "type": "function"
    },
    {
      "inputs": [],
      "name": "owner",
      "outputs": [
        {
          "internalType": "address payable",
          "name": "",
          "type": "address"
        }
      ],
      "stateMutability": "view",
      "type": "function"
    }
  ],
  "bytecode": "0x60806040526200004f6040518060400160405280601281526020017f596f2120536d61727420436f6e747261637400000000000000000000000000008152506200009660201b620005d41760201c565b33600160006101000a81548173ffffffffffffffffffffffffffffffffffffffff021916908373ffffffffffffffffffffffffffffffffffffffff1602179055506200022a565b6200013681604051602401620000ad9190620001a3565b6040516020818303038152906040527f41304fac000000000000000000000000000000000000000000000000000000007bffffffffffffffffffffffffffffffffffffffffffffffffffffffff19166020820180517bffffffffffffffffffffffffffffffffffffffffffffffffffffffff83818316178352505050506200013960201b60201c565b50565b60008151905060006a636f6e736f6c652e6c6f679050602083016000808483855afa5050505050565b60006200016f82620001c7565b6200017b8185620001d2565b93506200018d818560208601620001e3565b620001988162000219565b840191505092915050565b60006020820190508181036000830152620001bf818462000162565b905092915050565b600081519050919050565b600082825260208201905092915050565b60005b8381101562000203578082015181840152602081019050620001e6565b8381111562000213576000848401525b50505050565b6000601f19601f8301169050919050565b61106b806200023a6000396000f3fe60806040526004361061003f5760003560e01c8063441315c5146100445780634839ee3f146100605780638da5cb5b1461008b578063d386beca146100b6575b600080fd5b61005e600480360381019061005991906108ee565b6100e1565b005b34801561006c57600080fd5b5061007561039d565b6040516100829190610c9a565b60405180910390f35b34801561009757600080fd5b506100a06103cb565b6040516100ad9190610b9b565b60405180910390f35b3480156100c257600080fd5b506100cb6103f1565b6040516100d89190610bb6565b60405180910390f35b6000655af3107a400090508082111561012f576040517f08c379a000000000000000000000000000000000000000000000000000000000815260040161012690610c5a565b60405180910390fd5b60016000808282546101419190610dc1565b925050819055506101876040518060400160405280601a81526020017f257320686173206a7573742073656e74206120636f66666565210000000000008152503361066d565b600260405180608001604052803373ffffffffffffffffffffffffffffffffffffffff16815260200186815260200185815260200142815250908060018154018082558091505060019003906000526020600020906004020160009091909190915060008201518160000160006101000a81548173ffffffffffffffffffffffffffffffffffffffff021916908373ffffffffffffffffffffffffffffffffffffffff160217905550602082015181600101908051906020019061024c9291906107ce565b5060408201518160020190805190602001906102699291906107ce565b506060820151816003015550506000600160009054906101000a900473ffffffffffffffffffffffffffffffffffffffff1673ffffffffffffffffffffffffffffffffffffffff16836040516102be90610b86565b60006040518083038185875af1925050503d80600081146102fb576040519150601f19603f3d011682016040523d82523d6000602084013e610300565b606091505b5050905080610344576040517f08c379a000000000000000000000000000000000000000000000000000000000815260040161033b90610c7a565b60405180910390fd5b3373ffffffffffffffffffffffffffffffffffffffff167f5d202edb9ac9aca913189e3c829f7fdbba23859e91379c70ecf7874fe39632a742878760405161038e93929190610cb5565b60405180910390a25050505050565b60006103c360405180606001604052806021815260200161101560219139600054610709565b600054905090565b600160009054906101000a900473ffffffffffffffffffffffffffffffffffffffff1681565b60606002805480602002602001604051908101604052809291908181526020016000905b828210156105cb57838290600052602060002090600402016040518060800160405290816000820160009054906101000a900473ffffffffffffffffffffffffffffffffffffffff1673ffffffffffffffffffffffffffffffffffffffff1673ffffffffffffffffffffffffffffffffffffffff16815260200160018201805461049e90610ea7565b80601f01602080910402602001604051908101604052809291908181526020018280546104ca90610ea7565b80156105175780601f106104ec57610100808354040283529160200191610517565b820191906000526020600020905b8154815290600101906020018083116104fa57829003601f168201915b5050505050815260200160028201805461053090610ea7565b80601f016020809104026020016040519081016040528092919081815260200182805461055c90610ea7565b80156105a95780601f1061057e576101008083540402835291602001916105a9565b820191906000526020600020905b81548152906001019060200180831161058c57829003601f168201915b5050505050815260200160038201548152505081526020019060010190610415565b50505050905090565b61066a816040516024016105e89190610bd8565b6040516020818303038152906040527f41304fac000000000000000000000000000000000000000000000000000000007bffffffffffffffffffffffffffffffffffffffffffffffffffffffff19166020820180517bffffffffffffffffffffffffffffffffffffffffffffffffffffffff83818316178352505050506107a5565b50565b6107058282604051602401610683929190610bfa565b6040516020818303038152906040527f319af333000000000000000000000000000000000000000000000000000000007bffffffffffffffffffffffffffffffffffffffffffffffffffffffff19166020820180517bffffffffffffffffffffffffffffffffffffffffffffffffffffffff83818316178352505050506107a5565b5050565b6107a1828260405160240161071f929190610c2a565b6040516020818303038152906040527fb60e72cc000000000000000000000000000000000000000000000000000000007bffffffffffffffffffffffffffffffffffffffffffffffffffffffff19166020820180517bffffffffffffffffffffffffffffffffffffffffffffffffffffffff83818316178352505050506107a5565b5050565b60008151905060006a636f6e736f6c652e6c6f679050602083016000808483855afa5050505050565b8280546107da90610ea7565b90600052602060002090601f0160209004810192826107fc5760008555610843565b82601f1061081557805160ff1916838001178555610843565b82800160010185558215610843579182015b82811115610842578251825591602001919060010190610827565b5b5090506108509190610854565b5090565b5b8082111561086d576000816000905550600101610855565b5090565b600061088461087f84610d1f565b610cfa565b90508281526020810184848401111561089c57600080fd5b6108a7848285610e65565b509392505050565b600082601f8301126108c057600080fd5b81356108d0848260208601610871565b91505092915050565b6000813590506108e881610ffd565b92915050565b60008060006060848603121561090357600080fd5b600084013567ffffffffffffffff81111561091d57600080fd5b610929868287016108af565b935050602084013567ffffffffffffffff81111561094657600080fd5b610952868287016108af565b9250506040610963868287016108d9565b9150509250925092565b60006109798383610afe565b905092915050565b61098a81610e29565b82525050565b61099981610e17565b82525050565b6109a881610e17565b82525050565b60006109b982610d60565b6109c38185610d83565b9350836020820285016109d585610d50565b8060005b85811015610a1157848403895281516109f2858261096d565b94506109fd83610d76565b925060208a019950506001810190506109d9565b50829750879550505050505092915050565b6000610a2e82610d6b565b610a388185610d9f565b9350610a48818560208601610e74565b610a5181610f97565b840191505092915050565b6000610a6782610d6b565b610a718185610db0565b9350610a81818560208601610e74565b610a8a81610f97565b840191505092915050565b6000610aa2601b83610db0565b9150610aad82610fa8565b602082019050919050565b6000610ac5601483610db0565b9150610ad082610fd1565b602082019050919050565b6000610ae8600083610d94565b9150610af382610ffa565b600082019050919050565b6000608083016000830151610b166000860182610990565b5060208301518482036020860152610b2e8282610a23565b91505060408301518482036040860152610b488282610a23565b9150506060830151610b5d6060860182610b68565b508091505092915050565b610b7181610e5b565b82525050565b610b8081610e5b565b82525050565b6000610b9182610adb565b9150819050919050565b6000602082019050610bb06000830184610981565b92915050565b60006020820190508181036000830152610bd081846109ae565b905092915050565b60006020820190508181036000830152610bf28184610a5c565b905092915050565b60006040820190508181036000830152610c148185610a5c565b9050610c23602083018461099f565b9392505050565b60006040820190508181036000830152610c448185610a5c565b9050610c536020830184610b77565b9392505050565b60006020820190508181036000830152610c7381610a95565b9050919050565b60006020820190508181036000830152610c9381610ab8565b9050919050565b6000602082019050610caf6000830184610b77565b92915050565b6000606082019050610cca6000830186610b77565b8181036020830152610cdc8185610a5c565b90508181036040830152610cf08184610a5c565b9050949350505050565b6000610d04610d15565b9050610d108282610ed9565b919050565b6000604051905090565b600067ffffffffffffffff821115610d3a57610d39610f68565b5b610d4382610f97565b9050602081019050919050565b6000819050602082019050919050565b600081519050919050565b600081519050919050565b6000602082019050919050565b600082825260208201905092915050565b600081905092915050565b600082825260208201905092915050565b600082825260208201905092915050565b6000610dcc82610e5b565b9150610dd783610e5b565b9250827fffffffffffffffffffffffffffffffffffffffffffffffffffffffffffffffff03821115610e0c57610e0b610f0a565b5b828201905092915050565b6000610e2282610e3b565b9050919050565b6000610e3482610e3b565b9050919050565b600073ffffffffffffffffffffffffffffffffffffffff82169050919050565b6000819050919050565b82818337600083830152505050565b60005b83811015610e92578082015181840152602081019050610e77565b83811115610ea1576000848401525b50505050565b60006002820490506001821680610ebf57607f821691505b60208210811415610ed357610ed2610f39565b5b50919050565b610ee282610f97565b810181811067ffffffffffffffff82111715610f0157610f00610f68565b5b80604052505050565b7f4e487b7100000000000000000000000000000000000000000000000000000000600052601160045260246000fd5b7f4e487b7100000000000000000000000000000000000000000000000000000000600052602260045260246000fd5b7f4e487b7100000000000000000000000000000000000000000000000000000000600052604160045260246000fd5b6000601f19601f8301169050919050565b7f496e73756666696369656e742045746865722070726f76696465640000000000600082015250565b7f4661696c656420746f2073656e64206d6f6e6579000000000000000000000000600082015250565b50565b61100681610e5b565b811461101157600080fd5b5056fe5765206861766520256420746f74616c20636f6666656520726563696576656420a2646970667358221220b002f7a0dbb45a36e63d2dd9f2b70ed8d50d38dbc8f03e9ec33c8981c8a909b464736f6c63430008040033",
  "linkReferences": {},
  "deployedLinkReferences": {}
}